{
  "_format": "hh-sol-artifact-1",
  "contractName": "PolygonNFT",
  "sourceName": "contracts/PolygonNFT.sol",
  "abi": [
    {
      "inputs": [
        {
          "internalType": "string",
          "name": "_name",
          "type": "string"
        },
        {
          "internalType": "string",
          "name": "_symbol",
          "type": "string"
        }
      ],
      "stateMutability": "nonpayable",
      "type": "constructor"
    },
    {
      "anonymous": false,
      "inputs": [
        {
          "indexed": true,
          "internalType": "address",
          "name": "owner",
          "type": "address"
        },
        {
          "indexed": true,
          "internalType": "address",
          "name": "approved",
          "type": "address"
        },
        {
          "indexed": true,
          "internalType": "uint256",
          "name": "tokenId",
          "type": "uint256"
        }
      ],
      "name": "Approval",
      "type": "event"
    },
    {
      "anonymous": false,
      "inputs": [
        {
          "indexed": true,
          "internalType": "address",
          "name": "owner",
          "type": "address"
        },
        {
          "indexed": true,
          "internalType": "address",
          "name": "operator",
          "type": "address"
        },
        {
          "indexed": false,
          "internalType": "bool",
          "name": "approved",
          "type": "bool"
        }
      ],
      "name": "ApprovalForAll",
      "type": "event"
    },
    {
      "anonymous": false,
      "inputs": [
        {
          "indexed": false,
          "internalType": "uint256",
          "name": "_fromTokenId",
          "type": "uint256"
        },
        {
          "indexed": false,
          "internalType": "uint256",
          "name": "_toTokenId",
          "type": "uint256"
        }
      ],
      "name": "BatchMetadataUpdate",
      "type": "event"
    },
    {
      "anonymous": false,
      "inputs": [
        {
          "indexed": false,
          "internalType": "uint256",
          "name": "_tokenId",
          "type": "uint256"
        }
      ],
      "name": "MetadataUpdate",
      "type": "event"
    },
    {
      "anonymous": false,
      "inputs": [
        {
          "indexed": true,
          "internalType": "address",
          "name": "from",
          "type": "address"
        },
        {
          "indexed": true,
          "internalType": "address",
          "name": "to",
          "type": "address"
        },
        {
          "indexed": true,
          "internalType": "uint256",
          "name": "tokenId",
          "type": "uint256"
        }
      ],
      "name": "Transfer",
      "type": "event"
    },
    {
      "inputs": [
        {
          "internalType": "address",
          "name": "to",
          "type": "address"
        },
        {
          "internalType": "uint256",
          "name": "tokenId",
          "type": "uint256"
        }
      ],
      "name": "approve",
      "outputs": [],
      "stateMutability": "nonpayable",
      "type": "function"
    },
    {
      "inputs": [
        {
          "internalType": "address",
          "name": "owner",
          "type": "address"
        }
      ],
      "name": "balanceOf",
      "outputs": [
        {
          "internalType": "uint256",
          "name": "",
          "type": "uint256"
        }
      ],
      "stateMutability": "view",
      "type": "function"
    },
    {
      "inputs": [
        {
          "internalType": "uint256",
          "name": "tokenId",
          "type": "uint256"
        }
      ],
      "name": "getApproved",
      "outputs": [
        {
          "internalType": "address",
          "name": "",
          "type": "address"
        }
      ],
      "stateMutability": "view",
      "type": "function"
    },
    {
      "inputs": [
        {
          "internalType": "address",
          "name": "owner",
          "type": "address"
        },
        {
          "internalType": "address",
          "name": "operator",
          "type": "address"
        }
      ],
      "name": "isApprovedForAll",
      "outputs": [
        {
          "internalType": "bool",
          "name": "",
          "type": "bool"
        }
      ],
      "stateMutability": "view",
      "type": "function"
    },
    {
      "inputs": [
        {
          "internalType": "address",
          "name": "to",
          "type": "address"
        },
        {
          "internalType": "string",
          "name": "tokenURI",
          "type": "string"
        }
      ],
      "name": "mint",
      "outputs": [
        {
          "internalType": "uint256",
          "name": "",
          "type": "uint256"
        }
      ],
      "stateMutability": "nonpayable",
      "type": "function"
    },
    {
      "inputs": [],
      "name": "name",
      "outputs": [
        {
          "internalType": "string",
          "name": "",
          "type": "string"
        }
      ],
      "stateMutability": "view",
      "type": "function"
    },
    {
      "inputs": [
        {
          "internalType": "uint256",
          "name": "tokenId",
          "type": "uint256"
        }
      ],
      "name": "ownerOf",
      "outputs": [
        {
          "internalType": "address",
          "name": "",
          "type": "address"
        }
      ],
      "stateMutability": "view",
      "type": "function"
    },
    {
      "inputs": [
        {
          "internalType": "address",
          "name": "from",
          "type": "address"
        },
        {
          "internalType": "address",
          "name": "to",
          "type": "address"
        },
        {
          "internalType": "uint256",
          "name": "tokenId",
          "type": "uint256"
        }
      ],
      "name": "safeTransferFrom",
      "outputs": [],
      "stateMutability": "nonpayable",
      "type": "function"
    },
    {
      "inputs": [
        {
          "internalType": "address",
          "name": "from",
          "type": "address"
        },
        {
          "internalType": "address",
          "name": "to",
          "type": "address"
        },
        {
          "internalType": "uint256",
          "name": "tokenId",
          "type": "uint256"
        },
        {
          "internalType": "bytes",
          "name": "data",
          "type": "bytes"
        }
      ],
      "name": "safeTransferFrom",
      "outputs": [],
      "stateMutability": "nonpayable",
      "type": "function"
    },
    {
      "inputs": [
        {
          "internalType": "address",
          "name": "operator",
          "type": "address"
        },
        {
          "internalType": "bool",
          "name": "approved",
          "type": "bool"
        }
      ],
      "name": "setApprovalForAll",
      "outputs": [],
      "stateMutability": "nonpayable",
      "type": "function"
    },
    {
      "inputs": [
        {
          "internalType": "bytes4",
          "name": "interfaceId",
          "type": "bytes4"
        }
      ],
      "name": "supportsInterface",
      "outputs": [
        {
          "internalType": "bool",
          "name": "",
          "type": "bool"
        }
      ],
      "stateMutability": "view",
      "type": "function"
    },
    {
      "inputs": [],
      "name": "symbol",
      "outputs": [
        {
          "internalType": "string",
          "name": "",
          "type": "string"
        }
      ],
      "stateMutability": "view",
      "type": "function"
    },
    {
      "inputs": [
        {
          "internalType": "uint256",
          "name": "tokenId",
          "type": "uint256"
        }
      ],
      "name": "tokenURI",
      "outputs": [
        {
          "internalType": "string",
          "name": "",
          "type": "string"
        }
      ],
      "stateMutability": "view",
      "type": "function"
    },
    {
      "inputs": [
        {
          "internalType": "address",
          "name": "from",
          "type": "address"
        },
        {
          "internalType": "address",
          "name": "to",
          "type": "address"
        },
        {
          "internalType": "uint256",
          "name": "tokenId",
          "type": "uint256"
        }
      ],
      "name": "transferFrom",
      "outputs": [],
      "stateMutability": "nonpayable",
      "type": "function"
    }
  ],
  "bytecode": "0x60806040523480156200001157600080fd5b5060405162002d6c38038062002d6c8339818101604052810190620000379190620002c2565b818181600090805190602001906200005192919062000075565b5080600190805190602001906200006a92919062000075565b5050505050620003ac565b828054620000839062000376565b90600052602060002090601f016020900481019282620000a75760008555620000f3565b82601f10620000c257805160ff1916838001178555620000f3565b82800160010185558215620000f3579182015b82811115620000f2578251825591602001919060010190620000d5565b5b50905062000102919062000106565b5090565b5b808211156200012157600081600090555060010162000107565b5090565b6000604051905090565b600080fd5b600080fd5b600080fd5b600080fd5b6000601f19601f8301169050919050565b7f4e487b7100000000000000000000000000000000000000000000000000000000600052604160045260246000fd5b6200018e8262000143565b810181811067ffffffffffffffff82111715620001b057620001af62000154565b5b80604052505050565b6000620001c562000125565b9050620001d3828262000183565b919050565b600067ffffffffffffffff821115620001f657620001f562000154565b5b620002018262000143565b9050602081019050919050565b60005b838110156200022e57808201518184015260208101905062000211565b838111156200023e576000848401525b50505050565b60006200025b6200025584620001d8565b620001b9565b9050828152602081018484840111156200027a57620002796200013e565b5b620002878482856200020e565b509392505050565b600082601f830112620002a757620002a662000139565b5b8151620002b984826020860162000244565b91505092915050565b60008060408385031215620002dc57620002db6200012f565b5b600083015167ffffffffffffffff811115620002fd57620002fc62000134565b5b6200030b858286016200028f565b925050602083015167ffffffffffffffff8111156200032f576200032e62000134565b5b6200033d858286016200028f565b9150509250929050565b7f4e487b7100000000000000000000000000000000000000000000000000000000600052602260045260246000fd5b600060028204905060018216806200038f57607f821691505b60208210811415620003a657620003a562000347565b5b50919050565b6129b080620003bc6000396000f3fe608060405234801561001057600080fd5b50600436106100ea5760003560e01c806370a082311161008c578063b88d4fde11610066578063b88d4fde1461025b578063c87b56dd14610277578063d0def521146102a7578063e985e9c5146102d7576100ea565b806370a08231146101f157806395d89b4114610221578063a22cb4651461023f576100ea565b8063095ea7b3116100c8578063095ea7b31461016d57806323b872dd1461018957806342842e0e146101a55780636352211e146101c1576100ea565b806301ffc9a7146100ef57806306fdde031461011f578063081812fc1461013d575b600080fd5b61010960048036038101906101049190611b13565b610307565b6040516101169190611b5b565b60405180910390f35b610127610368565b6040516101349190611c0f565b60405180910390f35b61015760048036038101906101529190611c67565b6103fa565b6040516101649190611cd5565b60405180910390f35b61018760048036038101906101829190611d1c565b610440565b005b6101a3600480360381019061019e9190611d5c565b610558565b005b6101bf60048036038101906101ba9190611d5c565b6105b8565b005b6101db60048036038101906101d69190611c67565b6105d8565b6040516101e89190611cd5565b60405180910390f35b61020b60048036038101906102069190611daf565b61065f565b6040516102189190611deb565b60405180910390f35b610229610717565b6040516102369190611c0f565b60405180910390f35b61025960048036038101906102549190611e32565b6107a9565b005b61027560048036038101906102709190611fa7565b6107bf565b005b610291600480360381019061028c9190611c67565b610821565b60405161029e9190611c0f565b60405180910390f35b6102c160048036038101906102bc91906120cb565b610934565b6040516102ce9190611deb565b60405180910390f35b6102f160048036038101906102ec9190612127565b61096c565b6040516102fe9190611b5b565b60405180910390f35b6000634906490660e01b7bffffffffffffffffffffffffffffffffffffffffffffffffffffffff1916827bffffffffffffffffffffffffffffffffffffffffffffffffffffffff19161480610361575061036082610a00565b5b9050919050565b60606000805461037790612196565b80601f01602080910402602001604051908101604052809291908181526020018280546103a390612196565b80156103f05780601f106103c5576101008083540402835291602001916103f0565b820191906000526020600020905b8154815290600101906020018083116103d357829003601f168201915b5050505050905090565b600061040582610ae2565b6004600083815260200190815260200160002060009054906101000a900473ffffffffffffffffffffffffffffffffffffffff169050919050565b600061044b826105d8565b90508073ffffffffffffffffffffffffffffffffffffffff168373ffffffffffffffffffffffffffffffffffffffff1614156104bc576040517f08c379a00000000000000000000000000000000000000000000000000000000081526004016104b39061223a565b60405180910390fd5b8073ffffffffffffffffffffffffffffffffffffffff166104db610b2d565b73ffffffffffffffffffffffffffffffffffffffff16148061050a575061050981610504610b2d565b61096c565b5b610549576040517f08c379a0000000000000000000000000000000000000000000000000000000008152600401610540906122cc565b60405180910390fd5b6105538383610b35565b505050565b610569610563610b2d565b82610bee565b6105a8576040517f08c379a000000000000000000000000000000000000000000000000000000000815260040161059f9061235e565b60405180910390fd5b6105b3838383610c83565b505050565b6105d3838383604051806020016040528060008152506107bf565b505050565b6000806105e483610f7d565b9050600073ffffffffffffffffffffffffffffffffffffffff168173ffffffffffffffffffffffffffffffffffffffff161415610656576040517f08c379a000000000000000000000000000000000000000000000000000000000815260040161064d906123ca565b60405180910390fd5b80915050919050565b60008073ffffffffffffffffffffffffffffffffffffffff168273ffffffffffffffffffffffffffffffffffffffff1614156106d0576040517f08c379a00000000000000000000000000000000000000000000000000000000081526004016106c79061245c565b60405180910390fd5b600360008373ffffffffffffffffffffffffffffffffffffffff1673ffffffffffffffffffffffffffffffffffffffff168152602001908152602001600020549050919050565b60606001805461072690612196565b80601f016020809104026020016040519081016040528092919081815260200182805461075290612196565b801561079f5780601f106107745761010080835404028352916020019161079f565b820191906000526020600020905b81548152906001019060200180831161078257829003601f168201915b5050505050905090565b6107bb6107b4610b2d565b8383610fba565b5050565b6107d06107ca610b2d565b83610bee565b61080f576040517f08c379a00000000000000000000000000000000000000000000000000000000081526004016108069061235e565b60405180910390fd5b61081b84848484611127565b50505050565b606061082c82610ae2565b600060066000848152602001908152602001600020805461084c90612196565b80601f016020809104026020016040519081016040528092919081815260200182805461087890612196565b80156108c55780601f1061089a576101008083540402835291602001916108c5565b820191906000526020600020905b8154815290600101906020018083116108a857829003601f168201915b5050505050905060006108d6611183565b90506000815114156108ec57819250505061092f565b6000825111156109215780826040516020016109099291906124b8565b6040516020818303038152906040529250505061092f565b61092a8461119a565b925050505b919050565b60006109406007611202565b600061094c6007611218565b90506109588482611226565b6109628184611244565b8091505092915050565b6000600560008473ffffffffffffffffffffffffffffffffffffffff1673ffffffffffffffffffffffffffffffffffffffff16815260200190815260200160002060008373ffffffffffffffffffffffffffffffffffffffff1673ffffffffffffffffffffffffffffffffffffffff16815260200190815260200160002060009054906101000a900460ff16905092915050565b60007f80ac58cd000000000000000000000000000000000000000000000000000000007bffffffffffffffffffffffffffffffffffffffffffffffffffffffff1916827bffffffffffffffffffffffffffffffffffffffffffffffffffffffff19161480610acb57507f5b5e139f000000000000000000000000000000000000000000000000000000007bffffffffffffffffffffffffffffffffffffffffffffffffffffffff1916827bffffffffffffffffffffffffffffffffffffffffffffffffffffffff1916145b80610adb5750610ada826112ef565b5b9050919050565b610aeb81611359565b610b2a576040517f08c379a0000000000000000000000000000000000000000000000000000000008152600401610b21906123ca565b60405180910390fd5b50565b600033905090565b816004600083815260200190815260200160002060006101000a81548173ffffffffffffffffffffffffffffffffffffffff021916908373ffffffffffffffffffffffffffffffffffffffff160217905550808273ffffffffffffffffffffffffffffffffffffffff16610ba8836105d8565b73ffffffffffffffffffffffffffffffffffffffff167f8c5be1e5ebec7d5bd14f71427d1e84f3dd0314c0f7b2291e5b200ac8c7c3b92560405160405180910390a45050565b600080610bfa836105d8565b90508073ffffffffffffffffffffffffffffffffffffffff168473ffffffffffffffffffffffffffffffffffffffff161480610c3c5750610c3b818561096c565b5b80610c7a57508373ffffffffffffffffffffffffffffffffffffffff16610c62846103fa565b73ffffffffffffffffffffffffffffffffffffffff16145b91505092915050565b8273ffffffffffffffffffffffffffffffffffffffff16610ca3826105d8565b73ffffffffffffffffffffffffffffffffffffffff1614610cf9576040517f08c379a0000000000000000000000000000000000000000000000000000000008152600401610cf09061254e565b60405180910390fd5b600073ffffffffffffffffffffffffffffffffffffffff168273ffffffffffffffffffffffffffffffffffffffff161415610d69576040517f08c379a0000000000000000000000000000000000000000000000000000000008152600401610d60906125e0565b60405180910390fd5b610d76838383600161139a565b8273ffffffffffffffffffffffffffffffffffffffff16610d96826105d8565b73ffffffffffffffffffffffffffffffffffffffff1614610dec576040517f08c379a0000000000000000000000000000000000000000000000000000000008152600401610de39061254e565b60405180910390fd5b6004600082815260200190815260200160002060006101000a81549073ffffffffffffffffffffffffffffffffffffffff02191690556001600360008573ffffffffffffffffffffffffffffffffffffffff1673ffffffffffffffffffffffffffffffffffffffff168152602001908152602001600020600082825403925050819055506001600360008473ffffffffffffffffffffffffffffffffffffffff1673ffffffffffffffffffffffffffffffffffffffff16815260200190815260200160002060008282540192505081905550816002600083815260200190815260200160002060006101000a81548173ffffffffffffffffffffffffffffffffffffffff021916908373ffffffffffffffffffffffffffffffffffffffff160217905550808273ffffffffffffffffffffffffffffffffffffffff168473ffffffffffffffffffffffffffffffffffffffff167fddf252ad1be2c89b69c2b068fc378daa952ba7f163c4a11628f55a4df523b3ef60405160405180910390a4610f7883838360016113a0565b505050565b60006002600083815260200190815260200160002060009054906101000a900473ffffffffffffffffffffffffffffffffffffffff169050919050565b8173ffffffffffffffffffffffffffffffffffffffff168373ffffffffffffffffffffffffffffffffffffffff161415611029576040517f08c379a00000000000000000000000000000000000000000000000000000000081526004016110209061264c565b60405180910390fd5b80600560008573ffffffffffffffffffffffffffffffffffffffff1673ffffffffffffffffffffffffffffffffffffffff16815260200190815260200160002060008473ffffffffffffffffffffffffffffffffffffffff1673ffffffffffffffffffffffffffffffffffffffff16815260200190815260200160002060006101000a81548160ff0219169083151502179055508173ffffffffffffffffffffffffffffffffffffffff168373ffffffffffffffffffffffffffffffffffffffff167f17307eab39ab6107e8899845ad3d59bd9653f200f220920489ca2b5937696c318360405161111a9190611b5b565b60405180910390a3505050565b611132848484610c83565b61113e848484846113a6565b61117d576040517f08c379a0000000000000000000000000000000000000000000000000000000008152600401611174906126de565b60405180910390fd5b50505050565b606060405180602001604052806000815250905090565b60606111a582610ae2565b60006111af611183565b905060008151116111cf57604051806020016040528060008152506111fa565b806111d98461153d565b6040516020016111ea9291906124b8565b6040516020818303038152906040525b915050919050565b6001816000016000828254019250508190555050565b600081600001549050919050565b611240828260405180602001604052806000815250611615565b5050565b61124d82611359565b61128c576040517f08c379a000000000000000000000000000000000000000000000000000000000815260040161128390612770565b60405180910390fd5b806006600084815260200190815260200160002090805190602001906112b3929190611a04565b507ff8e1a15aba9398e019f0b49df1a4fde98ee17ae345cb5f6b5e2c27f5033e8ce7826040516112e39190611deb565b60405180910390a15050565b60007f01ffc9a7000000000000000000000000000000000000000000000000000000007bffffffffffffffffffffffffffffffffffffffffffffffffffffffff1916827bffffffffffffffffffffffffffffffffffffffffffffffffffffffff1916149050919050565b60008073ffffffffffffffffffffffffffffffffffffffff1661137b83610f7d565b73ffffffffffffffffffffffffffffffffffffffff1614159050919050565b50505050565b50505050565b60006113c78473ffffffffffffffffffffffffffffffffffffffff16611670565b15611530578373ffffffffffffffffffffffffffffffffffffffff1663150b7a026113f0610b2d565b8786866040518563ffffffff1660e01b815260040161141294939291906127e5565b602060405180830381600087803b15801561142c57600080fd5b505af192505050801561145d57506040513d601f19601f8201168201806040525081019061145a9190612846565b60015b6114e0573d806000811461148d576040519150601f19603f3d011682016040523d82523d6000602084013e611492565b606091505b506000815114156114d8576040517f08c379a00000000000000000000000000000000000000000000000000000000081526004016114cf906126de565b60405180910390fd5b805181602001fd5b63150b7a0260e01b7bffffffffffffffffffffffffffffffffffffffffffffffffffffffff1916817bffffffffffffffffffffffffffffffffffffffffffffffffffffffff191614915050611535565b600190505b949350505050565b60606000600161154c84611693565b01905060008167ffffffffffffffff81111561156b5761156a611e7c565b5b6040519080825280601f01601f19166020018201604052801561159d5781602001600182028036833780820191505090505b509050600082602001820190505b60011561160a578080600190039150507f3031323334353637383961626364656600000000000000000000000000000000600a86061a8153600a85816115f4576115f3612873565b5b04945060008514156116055761160a565b6115ab565b819350505050919050565b61161f83836117e6565b61162c60008484846113a6565b61166b576040517f08c379a0000000000000000000000000000000000000000000000000000000008152600401611662906126de565b60405180910390fd5b505050565b6000808273ffffffffffffffffffffffffffffffffffffffff163b119050919050565b600080600090507a184f03e93ff9f4daa797ed6e38ed64bf6a1f01000000000000000083106116f1577a184f03e93ff9f4daa797ed6e38ed64bf6a1f01000000000000000083816116e7576116e6612873565b5b0492506040810190505b6d04ee2d6d415b85acef8100000000831061172e576d04ee2d6d415b85acef8100000000838161172457611723612873565b5b0492506020810190505b662386f26fc10000831061175d57662386f26fc10000838161175357611752612873565b5b0492506010810190505b6305f5e1008310611786576305f5e100838161177c5761177b612873565b5b0492506008810190505b61271083106117ab5761271083816117a1576117a0612873565b5b0492506004810190505b606483106117ce57606483816117c4576117c3612873565b5b0492506002810190505b600a83106117dd576001810190505b80915050919050565b600073ffffffffffffffffffffffffffffffffffffffff168273ffffffffffffffffffffffffffffffffffffffff161415611856576040517f08c379a000000000000000000000000000000000000000000000000000000000815260040161184d906128ee565b60405180910390fd5b61185f81611359565b1561189f576040517f08c379a00000000000000000000000000000000000000000000000000000000081526004016118969061295a565b60405180910390fd5b6118ad60008383600161139a565b6118b681611359565b156118f6576040517f08c379a00000000000000000000000000000000000000000000000000000000081526004016118ed9061295a565b60405180910390fd5b6001600360008473ffffffffffffffffffffffffffffffffffffffff1673ffffffffffffffffffffffffffffffffffffffff16815260200190815260200160002060008282540192505081905550816002600083815260200190815260200160002060006101000a81548173ffffffffffffffffffffffffffffffffffffffff021916908373ffffffffffffffffffffffffffffffffffffffff160217905550808273ffffffffffffffffffffffffffffffffffffffff16600073ffffffffffffffffffffffffffffffffffffffff167fddf252ad1be2c89b69c2b068fc378daa952ba7f163c4a11628f55a4df523b3ef60405160405180910390a4611a006000838360016113a0565b5050565b828054611a1090612196565b90600052602060002090601f016020900481019282611a325760008555611a79565b82601f10611a4b57805160ff1916838001178555611a79565b82800160010185558215611a79579182015b82811115611a78578251825591602001919060010190611a5d565b5b509050611a869190611a8a565b5090565b5b80821115611aa3576000816000905550600101611a8b565b5090565b6000604051905090565b600080fd5b600080fd5b60007fffffffff0000000000000000000000000000000000000000000000000000000082169050919050565b611af081611abb565b8114611afb57600080fd5b50565b600081359050611b0d81611ae7565b92915050565b600060208284031215611b2957611b28611ab1565b5b6000611b3784828501611afe565b91505092915050565b60008115159050919050565b611b5581611b40565b82525050565b6000602082019050611b706000830184611b4c565b92915050565b600081519050919050565b600082825260208201905092915050565b60005b83811015611bb0578082015181840152602081019050611b95565b83811115611bbf576000848401525b50505050565b6000601f19601f8301169050919050565b6000611be182611b76565b611beb8185611b81565b9350611bfb818560208601611b92565b611c0481611bc5565b840191505092915050565b60006020820190508181036000830152611c298184611bd6565b905092915050565b6000819050919050565b611c4481611c31565b8114611c4f57600080fd5b50565b600081359050611c6181611c3b565b92915050565b600060208284031215611c7d57611c7c611ab1565b5b6000611c8b84828501611c52565b91505092915050565b600073ffffffffffffffffffffffffffffffffffffffff82169050919050565b6000611cbf82611c94565b9050919050565b611ccf81611cb4565b82525050565b6000602082019050611cea6000830184611cc6565b92915050565b611cf981611cb4565b8114611d0457600080fd5b50565b600081359050611d1681611cf0565b92915050565b60008060408385031215611d3357611d32611ab1565b5b6000611d4185828601611d07565b9250506020611d5285828601611c52565b9150509250929050565b600080600060608486031215611d7557611d74611ab1565b5b6000611d8386828701611d07565b9350506020611d9486828701611d07565b9250506040611da586828701611c52565b9150509250925092565b600060208284031215611dc557611dc4611ab1565b5b6000611dd384828501611d07565b91505092915050565b611de581611c31565b82525050565b6000602082019050611e006000830184611ddc565b92915050565b611e0f81611b40565b8114611e1a57600080fd5b50565b600081359050611e2c81611e06565b92915050565b60008060408385031215611e4957611e48611ab1565b5b6000611e5785828601611d07565b9250506020611e6885828601611e1d565b9150509250929050565b600080fd5b600080fd5b7f4e487b7100000000000000000000000000000000000000000000000000000000600052604160045260246000fd5b611eb482611bc5565b810181811067ffffffffffffffff82111715611ed357611ed2611e7c565b5b80604052505050565b6000611ee6611aa7565b9050611ef28282611eab565b919050565b600067ffffffffffffffff821115611f1257611f11611e7c565b5b611f1b82611bc5565b9050602081019050919050565b82818337600083830152505050565b6000611f4a611f4584611ef7565b611edc565b905082815260208101848484011115611f6657611f65611e77565b5b611f71848285611f28565b509392505050565b600082601f830112611f8e57611f8d611e72565b5b8135611f9e848260208601611f37565b91505092915050565b60008060008060808587031215611fc157611fc0611ab1565b5b6000611fcf87828801611d07565b9450506020611fe087828801611d07565b9350506040611ff187828801611c52565b925050606085013567ffffffffffffffff81111561201257612011611ab6565b5b61201e87828801611f79565b91505092959194509250565b600067ffffffffffffffff82111561204557612044611e7c565b5b61204e82611bc5565b9050602081019050919050565b600061206e6120698461202a565b611edc565b90508281526020810184848401111561208a57612089611e77565b5b612095848285611f28565b509392505050565b600082601f8301126120b2576120b1611e72565b5b81356120c284826020860161205b565b91505092915050565b600080604083850312156120e2576120e1611ab1565b5b60006120f085828601611d07565b925050602083013567ffffffffffffffff81111561211157612110611ab6565b5b61211d8582860161209d565b9150509250929050565b6000806040838503121561213e5761213d611ab1565b5b600061214c85828601611d07565b925050602061215d85828601611d07565b9150509250929050565b7f4e487b7100000000000000000000000000000000000000000000000000000000600052602260045260246000fd5b600060028204905060018216806121ae57607f821691505b602082108114156121c2576121c1612167565b5b50919050565b7f4552433732313a20617070726f76616c20746f2063757272656e74206f776e6560008201527f7200000000000000000000000000000000000000000000000000000000000000602082015250565b6000612224602183611b81565b915061222f826121c8565b604082019050919050565b6000602082019050818103600083015261225381612217565b9050919050565b7f4552433732313a20617070726f76652063616c6c6572206973206e6f7420746f60008201527f6b656e206f776e6572206f7220617070726f76656420666f7220616c6c000000602082015250565b60006122b6603d83611b81565b91506122c18261225a565b604082019050919050565b600060208201905081810360008301526122e5816122a9565b9050919050565b7f4552433732313a2063616c6c6572206973206e6f7420746f6b656e206f776e6560008201527f72206f7220617070726f76656400000000000000000000000000000000000000602082015250565b6000612348602d83611b81565b9150612353826122ec565b604082019050919050565b600060208201905081810360008301526123778161233b565b9050919050565b7f4552433732313a20696e76616c696420746f6b656e2049440000000000000000600082015250565b60006123b4601883611b81565b91506123bf8261237e565b602082019050919050565b600060208201905081810360008301526123e3816123a7565b9050919050565b7f4552433732313a2061646472657373207a65726f206973206e6f74206120766160008201527f6c6964206f776e65720000000000000000000000000000000000000000000000602082015250565b6000612446602983611b81565b9150612451826123ea565b604082019050919050565b6000602082019050818103600083015261247581612439565b9050919050565b600081905092915050565b600061249282611b76565b61249c818561247c565b93506124ac818560208601611b92565b80840191505092915050565b60006124c48285612487565b91506124d08284612487565b91508190509392505050565b7f4552433732313a207472616e736665722066726f6d20696e636f72726563742060008201527f6f776e6572000000000000000000000000000000000000000000000000000000602082015250565b6000612538602583611b81565b9150612543826124dc565b604082019050919050565b600060208201905081810360008301526125678161252b565b9050919050565b7f4552433732313a207472616e7366657220746f20746865207a65726f2061646460008201527f7265737300000000000000000000000000000000000000000000000000000000602082015250565b60006125ca602483611b81565b91506125d58261256e565b604082019050919050565b600060208201905081810360008301526125f9816125bd565b9050919050565b7f4552433732313a20617070726f766520746f2063616c6c657200000000000000600082015250565b6000612636601983611b81565b915061264182612600565b602082019050919050565b6000602082019050818103600083015261266581612629565b9050919050565b7f4552433732313a207472616e7366657220746f206e6f6e20455243373231526560008201527f63656976657220696d706c656d656e7465720000000000000000000000000000602082015250565b60006126c8603283611b81565b91506126d38261266c565b604082019050919050565b600060208201905081810360008301526126f7816126bb565b9050919050565b7f45524337323155524953746f726167653a2055524920736574206f66206e6f6e60008201527f6578697374656e7420746f6b656e000000000000000000000000000000000000602082015250565b600061275a602e83611b81565b9150612765826126fe565b604082019050919050565b600060208201905081810360008301526127898161274d565b9050919050565b600081519050919050565b600082825260208201905092915050565b60006127b782612790565b6127c1818561279b565b93506127d1818560208601611b92565b6127da81611bc5565b840191505092915050565b60006080820190506127fa6000830187611cc6565b6128076020830186611cc6565b6128146040830185611ddc565b818103606083015261282681846127ac565b905095945050505050565b60008151905061284081611ae7565b92915050565b60006020828403121561285c5761285b611ab1565b5b600061286a84828501612831565b91505092915050565b7f4e487b7100000000000000000000000000000000000000000000000000000000600052601260045260246000fd5b7f4552433732313a206d696e7420746f20746865207a65726f2061646472657373600082015250565b60006128d8602083611b81565b91506128e3826128a2565b602082019050919050565b60006020820190508181036000830152612907816128cb565b9050919050565b7f4552433732313a20746f6b656e20616c7265616479206d696e74656400000000600082015250565b6000612944601c83611b81565b915061294f8261290e565b602082019050919050565b6000602082019050818103600083015261297381612937565b905091905056fea264697066735822122078f7bf1162ad0e5a6b476bde42fa831d71892397809bb086565e37287bfabdb864736f6c63430008090033",
  "linkReferences": {},
  "deployedLinkReferences": {}
}